:020000040800F2
:102000000000012059E6010857E6010855E60108DD
:1020100055E6010855E6010855E6010800000000F4
:1020200000000000000000000000000057E601086A
:1020300057E601080000000057E60108713000086B
:1020400055E6010855E6010855E6010855E6010880
:1020500055E6010855E6010855E6010855E6010870
:1020600055E6010855E6010855E6010855E6010860
:1020700055E6010855E601087D2E0008812F00086D
:1020800055E6010855E601080523000855E6010854
:1020900055E6010855E6010855E6010855E6010830
:1020A00055E6010855E6010855E6010855E6010820
:1020B000FD35000855E6010855E6010855E601081A
:1020C00055E6010875280008A128000855E6010812
:1020D00055E6010855E60108F93200086D3300089D
:1020E00055E6010855E6010855E6010855E60108E0
:1020F00055E6010855E6010855E6010855E60108D0
:1021000055E6010855E6010855E6010855E60108BF
:1021100055E6010855E6010855E6010855E60108AF
:1021200055E6010855E6010855E6010855E601089F
:1021300055E6010855E6010855E6010855E601088F
:1021400055E6010855E6010855E6010855E601087F
:10215000024B4FF400521A601BF0CEBD08ED00E0B8
:10216000024B81F8452043F820107047B436002018
:1021700037B55A4A5A4B111F00245A480D1F1C608C
:102180005C609C60DC602B1F026041608560C36006
:102190005548564D0A2104700E200D220B236970FC
:1021A000E8704FF4006152482A70AB701BF046FD96
:1021B00018214F481BF042FD4FF400714C481BF0B2
:1021C0003DFD4C481BF01EFF224623464948214650
:1021D0001BF08BFFFF2147481BF0AFFF082145484C
:1021E0001BF0A9FF202143481BF09DFF41481BF035
:1021F00095FF214612201CF0B5FA12201CF098FA27
:102200003D481BF038FC1B23214622463B481BF06F
:1022100077FC39481BF0C1FB37481BF0C3FB36483D
:102220001BF0C5FB34481BF0C7FB33481BF0C9FB50
:1022300031481BF0CBFB30481BF0CDFB2E481BF088
:10224000CFFB2D481BF0D1FB2B481BF0D3FB2A48BA
:102250001BF0D5FB28481BF0E1FB27481BF0E4FBF3
:1022600025481BF003FC2448297804221BF008FCB5
:102270002A7821488DF80720697804221BF000FC99
:1022800069781D488DF806100422A9781BF0F8FB28
:10229000AB781948E97804228DF805301BF0F0FB83
:1022A000E87802AA02F8040D042113481BF008FC88
:1022B000114821461BF0A8FB0F481BF066FB0E4897
:1022C0001BF0C0FB0E4C226812F0080FFAD10A482E
:1022D0001BF0C2FB21684B07FCD43EBD48240140E3
:1022E000B4360020C8360020B0360020C4360020A6
:1022F00018100240002C0140002401400010014051
:1023000008240140134B70B51A6822F004001860CD
:10231000002211495358B3B193F844600F4C711C1B
:10232000155993F84540C9B228688C4298BF0021DE
:102330001D6803EB4104A688A08080B24519AD1B3F
:102340001D6083F844100432102AE2D1044B0121AD
:10235000197070BD00240140B4360020C83600203A
:10236000B03600200E4B984211D006D8A3F58061FC
:10237000884213D10B4804210EE00B4A904209D049
:1023800002F58063984209D10648202104E00548FF
:10239000082101E0034810211BF050BC704700BF2A
:1023A000000C0140181002400010014070B50C46AE
:1023B0000546FFF7D7FF2846032100222346BDE844
:1023C00070401BF09DBB00002DE9F041174606460A
:1023D0000C461D46FFF7C6FF3FB10A4801211BF01E
:1023E0002DFC094B1A6817431F60304615B10321B5
:1023F000022201E0294601222346BDE8F0411BF0FC
:102400007FBB00BF1810024004000140436A002255
:1024100080F82320596841F480725A60596841F469
:1024200000725A60596821F4806240F201115A60CA
:102430001960012380F8223070474369426822F412
:1024400080614160D90701D500220261990748BF28
:1024500081695B0702D503690023036170470000AF
:10246000284BDA6A5B6A51695969480507D51088B3
:10247000411C88B21080596921F480605861596903
:10248000C90507D55088411C88B25080596921F48C
:10249000807058615969880507D59088411C88B2B9
:1024A0009080596921F4007058615969090507D570
:1024B000D088411C88B2D080596921F400605861ED
:1024C0005969C80407D51089411C88B2108159691F
:1024D00021F4805058615969490407D55089411C3D
:1024E00088B25081596921F48040586159690804C3
:1024F00007D59089411C88B290815A6922F4004125
:1025000059617047083C002070B5A54E96F82130FF
:1025100096F82020746A9A420AD1FFF7A1FF20465C
:10252000FFF78BFFF06A01694A1C026100212AE073
:10253000606956F8235010F45F4F0ED003210A2330
:1025400085F8251086F8223001262E70FFF788FFC7
:102550002046FFF772FF022656E12A78012A40F052
:10256000F6806B88012B02D0022B66D136E06269BF
:10257000D3070BD5616821F4806363606878032119
:1025800040F00102226186F8221070BD900714D538
:10259000216821F400632360206820F480622260B7
:1025A00072B6A369216841F40073236062B6606863
:1025B000062140F480626260E5E7510640F1138134
:1025C000606820F48062626021690220CBB2072239
:1025D0006B7185F8250086F8222081E06169CA07C1
:1025E0000BD5636823F480626260206840F48061E8
:1025F0002160236843F400602EE088070CD572B692
:10260000A369236823F480622260606820F48061FB
:10261000616062B60521B6E74A0740F1E4802268AE
:10262000072142F40070206086F822102669F2B279
:102630006A712069C1B2A97150E0626912F00101AA
:102640000CD0626822F480606060236823F400612B
:102650002160226842F4806020608FE790070FD5E8
:1026600086F823106A8896F82310D01E814203DA78
:10267000636843F480616160A3690521484B8BE086
:10268000500638D56068410535D596F82300D91E27
:1026900088420CDA96F8231022696B18D0B2587170
:1026A00096F823104A1CD0B286F823001AE096F858
:1026B0002300013B98423A4A14DB666826F48061A5
:1026C000616092F8230023692918DEB24E7192F8F6
:1026D0002300431CDEB282F82360022385F82530F4
:1026E000012691E02E4B6A8893F82310D01E814278
:1026F00060686DDA28E0530775D572B623682848FC
:1027000023F48062226090F823302169EA18C9B26C
:10271000517190F82330591CCAB280F823202368E5
:1027200043F40071216062B6072280F8222090F8FD
:1027300023302169ED18CAB26A7190F82330591C10
:10274000CAB280F82320606840F4806342E0636985
:10275000D80707D56368022123F4806060606A7837
:10276000226110E799071DD5A3696A7922612B7947
:10277000012B03D9A8790221206100E00121084B37
:1027800086F8231093F823202979914203D96068B1
:1027900040F480626260042183F8221070BD00BFA3
:1027A000083C0020180617D56168490514D596F82D
:1027B00023002A185379236196F82310481CC2B2CB
:1027C00086F8232096F82330297999424ED86068FC
:1027D00020F48063636070BD5E0704D502269AB959
:1027E00085F8256010E022480A2180F8221003268F
:1027F000C06A85F82560C2890123511C2B708BB2F9
:10280000C3812046FFF719FE2878194902280AD10A
:102810000120287081F822002168002341F4807291
:102820002260236170BD022E05D12268002042F48F
:1028300000732360206191F821100D4A4B1CD8B21F
:10284000072898BF82F821004FF00001084888BF90
:1028500082F8211090F8212090F8203080F8221082
:102860009A4203D0BDE87040FFF7D0BD70BD00BFF5
:10287000083C0020084B10B55C6A606820F4807149
:102880006160FFF741FE054B00221A60606840F46A
:102890008071616010BD00BF083C002044370020FB
:1028A000084B10B55C6A606820F400716160FFF746
:1028B0002BFE054B00221A60606840F400716160D5
:1028C00010BD00BF083C002044370020084B1A68A8
:1028D000501C1860196842F21072914207D90548DD
:1028E000C26A5189481C81B2518100221A60704726
:1028F00044370020083C002010B590F82040621CAE
:10290000D4B290F82120072C88BF0024A2424FF0B7
:10291000000210D081F8252072B690F8202080F8AF
:10292000204040F8221090F8221009B9FFF76EFD00
:1029300062B6012010BD104610BD90F82220436AF7
:102940002AB9986980F00201C1F340007047002065
:102950007047000037B504460D46FFF7EEFF00282C
:102960003CD040F6B8318D42A8BF29464FF47A7268
:1029700044F2506091FBF2F190FBF1F2009200986A
:10298000636A132801DC14220092009840F6FE725C
:10299000904201DD501C0090114AA82092FBF1F1F9
:1029A00091FBF0F201920199092901DC0A200190C2
:1029B000019A1E2A01DD1F21019172B618684FF499
:1029C000497120F001021A6059600098D861019A9B
:1029D0001A62196841F00100186062B63EBD00BF7E
:1029E00040420F0070B5254B254A264D264E002447
:1029F0004FF4E0601460EB621C80AC625C806E623D
:102A00009C80DC801C815C819C81DC811C615C6120
:102A10001BF084FE214621201BF0A4FE21201BF088
:102A200087FE012122201BF09DFE184C22201BF066
:102A30007FFE4FF4800116481BF000F92046FFF797
:102A400091FC022103224FF4406320461BF058F80A
:102A500030461BF043FA30461BF062FA0D490E4B2C
:102A60004FF4804008601A680C4942F48070186086
:102A70002846BDE87040FFF76DBF00BFD836002084
:102A800044370020083C002000580040000C014062
:102A90001C1002400858004004540040E093040019
:102AA0002DE9F04705460C4692469946BDF8208030
:102AB0009DF824609DF828701BF06FF92846214688
:102AC00052461BF0E7F9284621464A461BF0EBF92F
:102AD0002846214642461BF0EFF92846214636B9E2
:102AE00032461BF083F928462146324607E04FF470
:102AF00080721BF07BF9284621464FF480621BF060
:102B000069F9284621461FB1BDE8F0471BF07AB9A4
:102B1000BDE8F0471BF07FB910B5C36A0446002139
:102B2000987B1BF01FFEE06A807B1BF001FEE16AD0
:102B3000C87B00211BF016FEE26AD07BBDE8104086
:102B40001BF0F6BD10B5C36A0446987B1BF0FEFD72
:102B5000E06AC07BBDE810401BF0F8BD0123F0B572
:102B60000B7780F822300B7C0D468F7B4FEAC30E2B
:102B70002A7BC46A4EEA871C0646C87B4CEA020ED2
:102B8000497B4EEA800C4CEA410E94F82CC05FFA67
:102B90008EFEF44585B03CD00FB14FF400676762FC
:102BA00000B18020A06201B10121216202B10222A4
:102BB000E261072B15D8DFE803F00406080A0C0EC3
:102BC000101200230CE008230AE0102308E0182369
:102BD00006E0202304E0282302E0302300E038232D
:102BE000A36184F82CE0B06A1BF0E9F9606A04F193
:102BF00018020090A16AB06A01910ECA1BF0C8F9D0
:102C0000B06A1BF0E1F9B06A1BF0E3F9B06A1BF09F
:102C1000D1F9EB7A012B07D8A87A022804D13948D8
:102C20004FF480511BF050F9696909B12846884773
:102C30002B7A217B5BB96A7AA87B02930092019080
:102C4000A068626804F11403FFF72AFF0EE0AF7B6F
:102C50000093019701270297A06862682B68FFF72D
:102C60001FFF6A7A287A824288BFA775A068217BF5
:102C70001BF0DAF8217BA0684FF440521BF09EF85D
:102C80006B7A617B5BB9287AAA7B029300900192F0
:102C9000A068626804F11003FFF702FF0EE0AF7B4B
:102CA00000930197012702976268A0686B68FFF79D
:102CB000F7FE297A6A7A914288BFA774A068617B7F
:102CC0001BF0BBF84FF48052A068617B1BF076F8D4
:102CD000A068217B1BF0BAF8A068617B1BF0B6F8F6
:102CE000A068217B1BF0C4F8A068617B1BF0C0F8D2
:102CF000B06A1BF07DF9B06A05B0BDE8F0401BF08A
:102D00006DB900BF000C014010B5064C4FF4805166
:102D10002046FFF74BFB20464FF48051BDE81040A2
:102D20001BF0D0B8000C014070B590F820600D4643
:102D3000711CCEB290F82130072E88BF0026B34216
:102D4000044601D02A891AB903202877002070BDD3
:102D500000212977FFF7F6FE94F8200094F822303E
:102D600044F8205084F820604BB994F8312032B9EF
:102D700094F82110204654F82110FFF7EFFE20466A
:102D8000FFF7CAFE012070BD2DE9F347324C3348EE
:102D90000E252827324BA0600421A5730F26314D44
:102DA000A7612B20304FDFF8D09005224FF00108AB
:102DB0002173E6734FF0020A002684F82C004FF4CA
:102DC00080412A48636062732682A674A682A67533
:102DD000C4F81CA0C4F820806662A662BD62FC62D2
:102DE00087F8206087F8216087F822601AF026FFB4
:102DF0004846032152464FF420431AF081FE3146E3
:102E000042464FF4804348461AF07AFE28461BF0AB
:102E10008DF828461BF0D3F8154928460E60626AE3
:102E2000A36A0092019304F118010EC91BF0B0F8D7
:102E300028461BF0C9F828461BF0CBF841460D4840
:102E40001AF0FCFE28461BF0B5F8384602B0BDE883
:102E5000F047FFF761BE00BF483700200000024086
:102E60000C38004000380040383C00201C10024064
:102E70001C38004014100240000C01407FB53C4B50
:102E80001868830404D53B490A6842F400540C6076
:102E9000394EF46A96F82150217BA06856F82550E7
:102EA0001AF0DDFFB06A1BF0A8F8A068217B1AF0C9
:102EB000E8FFA37D002B28D00023A3752A7A687A27
:102EC000217B801A82B20092A87B0293019004F1C8
:102ED00014036268A068FFF7E3FDA068217B1AF085
:102EE000A3FF4FF40052A068217B1AF067FFA0688F
:102EF000217B1AF0ABFFA068217B1AF0B9FFB06A02
:102F000004B0BDE870401BF073B8A96902202877AF
:102F100009B128468847EA7A0AB1022A07D1AB7A72
:102F2000022B04D115484FF480511AF0CBFF1249FF
:102F300091F82100421CD3B2072B88BF002381F8EF
:102F4000213091F8212091F820100B48914202D0B5
:102F500090F831302BB1084A002082F8220004B0EA
:102F600070BD50F8221004B0BDE87040FFF7F6BD08
:102F70000000024004000240383C0020000C0140E8
:102F80007FB5244B1868820304D523490A6842F4AC
:102F900000340C60214DEC6A95F82160617BA068DB
:102FA00055F826601AF05BFFA86A1BF01CF8A068B1
:102FB000617B1AF066FFA37C002B28D00023A3744A
:102FC000727A307A617B801A82B20092B07B02936F
:102FD000019004F110036268A068FFF761FDA0682A
:102FE000617B1AF02AFF4FF48052A068617B1AF0CF
:102FF000E5FEA068617B1AF029FFA068617B1AF0EA
:1030000037FFA86A04B0BDE870401AF0E7BF04B00B
:1030100070BD00BF0000024004000240383C0020A8
:1030200010B501200E4C1BF05FFB0E4BD4F8AC002A
:103030000D49C4F8B83023F07BF922F0E5FC0022FA
:103040000A4B22F083FB22F0F5FFC4F8B4000138EC
:103050001BF042FB1BF052FBBDE810401BF056BBBF
:103060006C3C002000A24A044054894C0000E03F20
:1030700038B5194B9A68D3F8B440501C9860596819
:10308000D3F8B8200D195D60586890420AD359688A
:103090008C1A5C601D684FF48071681C18600F48C2
:1030A0001AF018FF0C4C0025237B83B10A48A26953
:1030B000816891420BD3E3699918142202FB050041
:1030C0000123A1610375216909B1E8B2884701357F
:1030D0001434082DE8D138BD6C3C002000080140B4
:1030E00070B50446D0F80C01C3681B061CD50168F6
:1030F000090619D5B4F80631B4F804219A420CD067
:10310000E11891F884101BF09DFAB4F80601431CF5
:1031100003F07F02A4F8062106E0002184F80811DC
:10312000C36823F08002C260D4F80C01C1688A062B
:103130001AD503689B0617D50268110714D40168D5
:103140004A0711D403689B070ED4B4F880601BF0C3
:103150007DFA751CB4F8822005F07F05AA42A055BF
:1031600030D0A4F8805070BDC26891060AD50168BD
:103170000A0707D51BF06AFAB4F82001431C9AB27B
:10318000A4F82021D4F80C01C1688B060AD5036885
:10319000590707D51BF05AFAB4F82201421C91B224
:1031A000A4F82211D4F80C01C3689A060AD5026863
:1031B000930707D51BF04AFAB4F82401411C8BB2DF
:1031C000A4F8243170BD10B50446D0F80C011BF0F2
:1031D000FFF9D4F80C0108211BF00EFAD4F80C0109
:1031E00000211BF012FAD4F80C0100211BF013FA95
:1031F000D4F80C01C36823F01001C160026922F009
:1032000040030361C16841F02002C260BDE8104084
:103210001BF013BA38B5002914BF08210021044659
:103220001D460AB141F00401D4F80C011BF0F9F974
:10323000D4F80C0115B14FF4407100E02946BDE807
:1032400038401BF0F4B9B0F8042170B5531C0446A3
:10325000B0F8060103F07F0398420D4619D0D4F868
:103260000C01C66826F08006C66094F808612EB18D
:10327000A11881F88450A4F8043104E0012284F8F4
:1032800008211BF0DFF9D4F80C31D86840F0800237
:10329000DA6070BD38B5144C144D204616F0A4F910
:1032A000134B14484FF40031C4F80C311AF0C6FC2B
:1032B0002846042100220123FFF786F80022082176
:1032C00013462846FFF780F826201BF031FA01212B
:1032D00020460A460023FFF79DFF20464FF4614138
:1032E000BDE83840FFF76FBF283D002000080140CF
:1032F000004400401C1002400148FFF7F1BE00BF2F
:10330000283D002038B5154C154D204616F06CF9B7
:10331000144B15484FF48021C4F80C311AF08EFC80
:103320002846102201234FF48061FFF74DF8102248
:10333000002328464FF40061FFF746F827201BF0D2
:10334000F7F9012120460A460023FFF763FF2046D4
:103350004FF41641BDE83840FFF735BF503E00201E
:1033600000100140004800401C1002400148FFF7D7
:10337000B7BE00BF503E002038B505460C461BF0D6
:1033800057F8284621461AF0DAFE284621461AF058
:10339000CDFF284621461AF0ECFE2846214606229B
:1033A0001AF001FF284621461AF0DAFF2846214686
:1033B000BDE838401BF008B870B505460C46064815
:1033C00042F001011AF03AFC28460321022223466A
:1033D000BDE870401AF094BB1810024038B504469E
:1033E0000D461AF00FFE00210A460B4620461AF041
:1033F0007CFE472120461AF09EFE20461AF084FEED
:1034000020461AF086FE204640F6C3111AF095FEBB
:10341000E80703D520460021FFF7AEFFA90703D533
:1034200020460221FFF7A8FF6A0703D520460421A2
:10343000FFF7A2FF2B0703D520460621FFF79CFFCD
:1034400020461AF05CFE2046BDE838401AF066BE01
:1034500010B51D4C022120461AF0F0FB2046082131
:103460001AF0ECFB194B1A4C1A68402142F44060E8
:10347000186010222046FFF79FFF2046802110226F
:10348000FFF79AFF204610224FF48071FFF794FF58
:1034900020461022A4F500644FF40071FFF78CFF62
:1034A000204601210422FFF787FF20460221042243
:1034B000FFF782FF0F210748FFF790FF064803211F
:1034C000BDE81040FFF78ABF1C1002400400014015
:1034D0000010014000040040000C004038B5124CC0
:1034E000124D0021284622681AF0D6FF28460221F4
:1034F00062681AF0D1FF28460421A2681AF0CCFFB6
:1035000028460621E26805F500651AF0C5FF284641
:10351000002122691AF0C0FF626928460221BDE835
:1035200038401AF0B9BF00BF7837002000040040CF
:1035300010B52D4C01212D481AF080FB2046FEF7D6
:1035400011FF0022022113462046FEF73DFF4FF0F7
:1035500080401AF057FD00210B460A464FF080408C
:103560001AF0C3FD4FF080404FF6FF711AF0E5FDF1
:103570000B214FF080401AF0DEFD012100224FF0B8
:1035800080401AF0FBFB012102224FF080401AF02C
:10359000E5FF012100224FF080401AF0B7FF002222
:1035A00001214FF080401AF089FF02211C201BF0FE
:1035B000D9F81C201BF0BCF805214FF080401AF010
:1035C0008BFD01214FF080401AF0F9FF4FF0804051
:1035D0001AF0A4FD064A002313600648064A082193
:1035E0000170136010BD00BF000801401C100240B4
:1035F000943700209C37002098370020294B10B5C5
:103600001A6852073ED504214FF080401AF068FD39
:103610004FF080401AF050FF2349244A0B6811688C
:10362000C018234B10601A78411A082A13D1A1F54B
:10363000EA4031384EF65E2188421E4B09D81A788E
:1036400022B11D490120002208701A700022184B77
:1036500016E0002214E0A1F59654601E42F2CE045A
:10366000A04209D8154820F81210511CCAB2082AE5
:103670001A7016D1012202E00821197000220D4BA8
:103680001A7010BD1868C3070BD507494FF080406A
:103690000B6803F580320A600121BDE810401AF082
:1036A0001FBD10BD10000040983700209437002047
:1036B0009C3700209037002010510020005100203E
:1036C00007B50E4902234871EE2200930C480123EE
:1036D00015F017FF42F21170084991F8252012B930
:1036E0000138F9D107E091F82530012BF8D048795D
:1036F000897941EA002000B20EBD00BFAC3700203E
:10370000083C0020094908B5F4234B71EE2288716A
:103710000223074815F0EAFE044890F82520002A05
:10372000FAD090F825100129F6D008BDAC3700205A
:10373000083C0020204870B5204B00250570AA20C9
:103740001D721D605D60FFF7BBFF1D4C2080AC202B
:10375000FFF7B6FF6080AE20FFF7B2FFA080B02079
:10376000FFF7AEFFE080B220FFF7AAFF2081B42070
:10377000FFF7A6FF6081B620FFF7A2FFA081B82067
:10378000FFF79EFFE081BA20FFF79AFF2082BC205E
:10379000FFF796FF6082BE20FFF792FFA082094CE0
:1037A000012120461AF090FB2046294602220123DF
:1037B000BDE870401AF0A4B9F0370020A03700200F
:1037C000D4370020000C0140264B13B593F8252078
:1037D000002A45D093F82500012841D02248FFF760
:1037E000ACF800283CD0214C2178062938D8DFE8F5
:1037F00001F00409370E1F3725001D4B01202070F2
:1038000018722DE0F420FFF77DFF032114E0194822
:1038100001211AF05CFB18B31249F62303224B7105
:10382000114800920123EE2215F06BFE022015E0F4
:103830002E20FFF767FF0621217011E00D480121BE
:103840001AF045FB60B10749F62302224B71064886
:1038500000920123EE2215F054FE05200349087062
:103860001CBD00BFAC370020083C0020F037002012
:10387000A0370020000C0140484AF8B513780D46E7
:10388000022B5FD1464B93F8251000295AD093F8AC
:103890002510012956D00424147093F82520022AFB
:1038A00050D15E799F79DB79390241EA06471F439F
:1038B0003C4B9A69B3F90C10A2F57A6202FB02F64E
:1038C000B3F904E03613714302FB0EFC091401EB5B
:1038D0006C310231B3F806E0891001F500410EFBAE
:1038E00001F1B3F90EC0B3F900E0B3F9023006FB01
:1038F0000CF65A43D21202EBE62606EB8E03DA00F0
:10390000931C93FBF4F4C4EB571441F66A02C90B01
:10391000624303D45200B2FBF1F302E0B2FBF1F1D7
:103920004B001A12524340F6DE314A431E495943B6
:10393000091401EB224202F6CF611C4A03EB21136A
:103940001360804715480178052926D1144B93F858
:10395000252012B393F8251001291ED001220270F0
:1039600093F82500022818D159799B7943EA012060
:103970000C4B5A89811A1889B3F912204143C81394
:10398000D102B3F91420821891FBF2F1401898612A
:103990000830064B02115A60A847F8BDF0370020E6
:1039A000AC370020D437002043E3FFFFA0370020CE
:1039B0002D4B10B51A88501C81B21F2901D81980CF
:1039C00003E000221A8011F09DF9284B1878012895
:1039D0000AD8274A27481188538801809188D288BD
:1039E00043808180C28017E0234C207801F084FD61
:1039F000207801F0DBFA2178204B01B99960204A48
:103A0000107800B9D8601B4A196858681180996805
:103A1000DB6850809180D3801A480378002B22D035
:103A2000154A174C11782478174B61B11968D1B138
:103A30001248C06820B901391960A1B9117010BDD0
:103A400028221A6010BD186827280CD85CB10B4CCE
:103A5000E468002C06DD411C2829196003D10123EC
:103A6000137010BD196010BD043800200638002006
:103A7000EC6D02080C4B002002380020EC3A0020CC
:103A8000FB370020EA500020F43700200F4B10498C
:103A90001A78012A00D100B900220A7008780D4B6B
:103AA000002814BF0021012119700B4B01D0032005
:103AB0000AE01A78032A08D102211970074B1A78F4
:103AC000074B032A18BF01201870704728420020B6
:103AD000FB370020FE370020083800200638002081
:103AE000F837002010B52F4B1C78012C0CBF044672
:103AF00001242D480178A14253D00F2C2ED8DFE8A5
:103B000004F0080E1B1D2D1D1D1B1D27272729191D
:103B1000232111F0B9FB022001F0EAF92AE000208C
:103B2000FFF7B4FF214A224B00201070186001F00B
:103B3000DFF927E0052008E0012000E0022001F085
:103B4000D7F90BE0072000E0062001F0D1F91BE0D7
:103B50000320F4E7042001F0CBF91DE00F2C1ED860
:103B6000DFE804F0081012121414161818121618B0
:103B70001A121212032001F06DFC0E494FF480203E
:103B800008600CE0002008E0012006E0022004E0CC
:103B9000032002E0042000E0052001F05BFC024A63
:103BA000147010BD28420020063800200238002082
:103BB000F437002090390020154B164A10B500202C
:103BC000012410701C70144A144B154918701060B1
:103BD000144B154A0C700C2110701970134A1449BB
:103BE000144B087018801449144B1470144A087050
:103BF0001870107010F0B6FD01F03EF901F0DCFB1A
:103C000011F00AFB2046BDE81040FFF76BBF00BF74
:103C100006380020FB370020F4370020023800204F
:103C2000FE370020F9370020FA370020073800203F
:103C3000FC37002000380020FD3700200838002025
:103C4000F83700205E4B10B5B3F91020002A7ADA5D
:103C50000120FFF747FF5B4B1978002900F0AF8088
:103C6000594B5A4A1878032837D8DFE800F0020B7E
:103C7000131B00241470524AB2F91000A0427FDBDB
:103C8000012129E04E480024B0F910101470A1421F
:103C900023DA75E04A4B0020B3F9104010708442DB
:103CA00008DA1AE0464801241470B0F91020002AFE
:103CB00013DA7BE0B3F90620B2F5F07F0DDA5C8908
:103CC00040F2BE3204F2DF14A4B294425AD920B1B9
:103CD000032966D13C4B032119703C4B3C481C78AE
:103CE0003C4BD4F1010238BF002202703A4A1178ED
:103CF00079B11968F9B13248B0F90600B0F5F07F32
:103D000004DA01391960B1B9117014E028221A607F
:103D100011E0186827280ED86CB1294CB4F9064078
:103D2000B4F5F07F06DB411C2829196003D101237B
:103D3000137000E0196001F065FB274B1878BDE8AF
:103D4000104001F00DB9B3F90E00B0F5965F04DD37
:103D5000224908780C2806D07BE710F5965FCCBF87
:103D60000B20032075E71E4B19681E4BD3F8EC207F
:103D7000891A05297FF66DAF002083F85B006AE79A
:103D80000221A9E71C8904F2DF14A4B294429ED850
:103D9000988900F2DF1398B290428CBF0020012076
:103DA00095E711490A78002A97D093E70220032962
:103DB00018700D4B01D01C708FE700218CE710BDEF
:103DC000EA5000200638002008380020FB37002089
:103DD000FE370020F437002002380020F937002099
:103DE0006C3C0020844C0020F837002000000000CC
:103DF000F0B59B489B4B417800221A808A1E8FB0F9
:103E00000E2A00F27E85DFE812F061047C053A009C
:103E10003B047C057C050F007C057C057C057C054E
:103E20007C0512037C050F028F48062115F0EEFB7E
:103E3000002800F062858D4C8D4B25881988A81DBF
:103E40004A1C20808B4D884899211A800724FFF74F
:103E5000FAF985480621FFF7F6F92C70864C0D20FB
:103E6000207001218048FFF7EEF92B782278D91CC9
:103E7000C8B28318287023707B480321C9E1C27837
:103E8000774B012A40F03D859879D979020442EABE
:103E900001609E7859791B7943EA01221043019011
:103EA0002A2E00F25181DFE816F02B002F0033009C
:103EB0003C00450049004E00550057005B00600083
:103EC0006B006F0073007E00820086008A008F0006
:103ED000A200A600A900AD00B200BA00BF00C30056
:103EE000C800CD00D200D6001B0120012501290108
:103EF0002D013101350139013D01410146014B01DF
:103F000022F002FC5D491EE122F0FEFB5C491AE151
:103F1000002122F0A1FB00B10120FFF7B7FD5948B5
:103F2000E7E122F0F1FB584B1870C0B222F0A8F97B
:103F3000019009E122F0C2FB544902E022F0BEFBED
:103F40005349086000E122F0B9FB5249524B086026
:103F5000002162E051494FE022F0B0FB5049F0E708
:103F600022F0D2FB4F4A9070EEE00021012422F0B3
:103F700073FB00B100244C48047004F00100D5E745
:103F800022F09CFB4949DCE722F098FB4849D8E73E
:103F900022F094FB4749484A002310600B604B60B5
:103FA00022F072F9C4E722F089FB4449C9E722F004
:103FB00085FB4349C5E722F081FB414AB9E022F085
:103FC000A3FB384B5870BFE03E4C4FF08741206058
:103FD00022F0AEF904463C48006822F055F901464B
:103FE000204622F09BF822F069FB3849A9E722F02D
:103FF00065FB3749A5E737490860A5E022F05EFB7D
:1040000035499EE722F05AFB334AD0609CE022F00B
:1040100055FB314A314B506200211960C0E722F054
:104020004DFB2D4B98618FE022F048FB2A4A80E03F
:1040300022F044FB2849086186E022F03FFB264A33
:10404000906281E022F03AFB234BD8617CE022F0C1
:1040500035FB214B72E022F031FB1F49486173E0D0
:104060001038002090380020283D0020184B0020F8
:10407000144B0020224C0020234C0020043C002044
:10408000F9370020FE370020FD370020603900207E
:104090008C3900205039002064390020703900200C
:1040A000943900201C500020C0380020F038002037
:1040B000F8380020D0380020C4380020BC38002058
:1040C00008390020A83A0020343A0020B03A0020F5
:1040D000283A0020303A0020000000201C3B00203D
:1040E00022F0ECFAAC4AD0622EE022F0E7FAAA4BBA
:1040F000186229E022F0E2FAA84922E722F0DEFA6B
:10410000A64A16E022F0DAFAA44B17E022F0D6FA1B
:10411000A34916E722F0D2FAA14A0AE022F0CEFA29
:104120009F4B0BE022F0CAFA9E490AE722F0C6FA3A
:104130009C4A506008E022F0C1FA9A4B986003E074
:1041400022F0E2FA9849087098480B2115F05EFABF
:10415000002800F0D2839648964D02882C88511C86
:1041600001800B34914899212C80934CFFF76BF818
:104170008E480B21914DFFF766F817200C23207015
:1041800001218A482B70FFF75EF82A7823781F32C6
:10419000D1B2C818297020701F218448FFF753F846
:1041A0002A782078B118CBB21A1831467F482B7084
:1041B0002270FFF748F89DF804102B782278C81871
:1041C000C3B29818207079482B70FFF73CF89DF81F
:1041D00005102B78CA182378D0B2C21828707348FB
:1041E0002270FFF730F89DF80610287822780B1817
:1041F000D8B2831828706D482370FFF724F89DF813
:10420000071028780A182078D3B21A1867482B703C
:104210002270FFF718F829786448FFF714F863480C
:104220002178FFF710F86CE3C378012B40F0698325
:10423000634EB6782A2E00F2F88001A151F826F0DC
:10424000ED420008F14200081F3F0008F742000855
:10425000FB420008FF420008034300080743000830
:104260000B4300080F4300081543000819430008DA
:104270001D43000821430008254300082943000886
:104280002D43000831430008374300083B43000832
:104290003F43000845430008494300084F430008D6
:1042A000554300085B4300085F430008654300086E
:1042B0006B43000871430008754300087B43000806
:1042C00081430008874300088B4300088F430008A0
:1042D000934300080D4400081144000815440008E9
:1042E0001B4400082144000827440008354800E02A
:1042F000354800781AE63548FBE7354B8BE0354BFF
:1043000089E0354B87E035491AE0354B83E0354B82
:1043100098780BE63448ECE7344B7CE0344B7AE099
:10432000344B78E0344B76E0344B74E0334A75E03C
:104330002C4A5078FAE5324902E0324B6BE03249C0
:104340000868F5E5144B66E01348C06828E6124B90
:10435000586A25E6104A906922E60F4A5EE00E4947
:1043600008691DE60C48806A1AE60B4BD86917E607
:10437000094956E0084A506912E60749C86A0FE63B
:104380000548006A0CE6054B45E0044A46E003494F
:1043900047E0034B3FE000BF00000020D43B00207B
:1043A000B03B0020EC3B0020E0390020283D0020FD
:1043B000144B0020184B0020234C0020224C0020DE
:1043C00010380020043C0020F9370020FD37002081
:1043D000603900208C3900205039002070390020CD
:1043E000943900201C500020C0380020F0380020F4
:1043F000F8380020C4380020BC38002008390020DC
:10440000A83A0020283A0020303A0020A14A05E0CE
:10441000A04906E0A04B1868C2E59F4A5068BFE576
:104420009D498868BCE59D4863E7002080E5877862
:104430009B4B012F40F065829979D8790A0442EAB2
:10444000006219795879DE7841EA0020024302922D
:104450009A7AD97A100440EA0162197A587A41EAC4
:1044600000200243997B0392DA7B080440EA026150
:104470005A7B1B7B43EA02200143049189481421A3
:1044800015F0C4F8002800F0D4808749874C0B88C9
:1044900025885A1C0A801435992182482580844D2C
:1044A000844CFEF7D0FE14217E48FEF7CCFE15208A
:1044B0002921287021707B483946FEF7C4FE2B78ED
:1044C00022780E33D8B281182870217075480E21D9
:1044D000FEF7B9FE2B782278581CC1B28B182970D0
:1044E000704839462370FEF7AEFE287822783118DE
:1044F000CBB29818207031466A482B70FEF7A3FEA5
:104500002B789DF80810CA182378D0B2C2182870EA
:1045100064482270FEF797FE28789DF809102278EB
:104520000B18D8B2831828705E482370FEF78BFEF4
:1045300028789DF80A100A182078D3B21A1859481A
:104540002B702270FEF77FFE2B789DF80B102278DF
:10455000C818C3B29818207052482B70FEF773FE2B
:104560002B789DF80C10CA182378D0B2C218287086
:104570004C482270FEF767FE28789DF80D102278CF
:104580000B18D8B28318287046482370FEF75BFEDC
:1045900028789DF80E100A182078D3B21A184148CE
:1045A0002B702270FEF74FFE2B789DF80F102278AB
:1045B000C818C3B2981820703A482B70FEF743FE13
:1045C0002B789DF81010CA182378D0B2C218287022
:1045D00034482270FEF737FE28789DF811102278B3
:1045E0000B18D8B2831828702E482370FEF72BFEC4
:1045F00028789DF812100A182078D3B21A18294882
:104600002B702270FEF71FFE2B789DF81310227876
:10461000C818C3B29818207022482B70FEF713FEFA
:1046200029782048FEF70FFE1E482178FEF70BFE82
:1046300003E0214B1A78501C1870032E40F0618162
:104640001E490B78002B00F05C811D4A107803286E
:1046500040F0578100210C2205A81AF057F905A84F
:10466000184902AA13F0C0F8069919228B0105997E
:1046700093FBF2F08901144B91FBF2F21A6058603F
:104680000749C878012840F03C81887819F05EF924
:1046900037E100BFB03B0020EC3B0020E0390020B8
:1046A00010380020283D0020144B0020184B00201B
:1046B000224C0020234C0020164B0020A450002048
:1046C000923800203C50002008390020C778904CD8
:1046D000012F40F01681A179E579627923790804E8
:1046E00040EA056143EA022529438A4D86A3D3E9BE
:1046F000002381FB050122F027F80990A07A237A94
:10470000E17A0204607A42EA016143EA002211433D
:1047100081FB05017CA3D3E9002322F015F8A17BDE
:10472000627BA678E57B247B0890080444EA022398
:1047300040EA05651D430A21774C4D43E06B6269F1
:104740002D1AAB1821460BA808AA0A9313F0EFF90B
:104750000B9964200C0294FBF0F50C9A0D9C13024B
:10476000220293FBF0F192FBF0F30C2070436B4CB0
:104770000C9122180B950D93255051609360684859
:10478000132114F043FF002800F0B7806549664DFF
:104790000A882C88531C0B801334614899212C8083
:1047A000624D634CFEF74FFD5D481321FEF74BFD54
:1047B000142027212870217059483946FEF743FDFF
:1047C0002A7820783132D3B2191821705448312117
:1047D0002B70FEF738FD2A782178B318D8B242182A
:1047E000287031464E482270FEF72DFD2B789DF83B
:1047F0002C102278C818C3B29818207048482B7023
:10480000FEF721FD2B789DF82D10CA182378D0B221
:10481000C218287042482270FEF715FD28789DF8CE
:104820002E1022780B18D8B2831828703C482370B9
:10483000FEF709FD28789DF82F100A182078D3B2CA
:104840001A1837482B702270FEF7FDFC2B789DF864
:1048500030102278C818C3B29818207030482B70D6
:10486000FEF7F1FC2B789DF83110CA182378D0B2EE
:10487000C21828702A482270FEF7E5FC28789DF8B7
:10488000321022780B18D8B283182870244823706D
:10489000FEF7D9FC28789DF833100A182078D3B297
:1048A0001A181F482B702270FEF7CDFC2B789DF84C
:1048B00034102278C818C3B29818207018482B708A
:1048C000FEF7C1FC2B789DF83510CA182378D0B2BA
:1048D000C218287012482270FEF7B5FC28789DF89F
:1048E000361022780B18D8B2831828700C48237021
:1048F000FEF7A9FC9DF8371083E40E490B78581C8D
:1049000008700FB0F0BD00BF277F1A330000000011
:10491000103800202855E4003C500020403A002088
:10492000283D0020144B0020184B0020224C002072
:10493000234C0020164B002008B5044B1888830731
:1049400001D414F0EDFF024808BD00BF783F0020FD
:10495000D83F002008B5044BB3F81401820701D4F6
:1049600015F04EFB014808BD783F00209C40002018
:1049700073B5FFF7E1FF114D0368114E2B60FFF790
:10498000DBFF406800246860FFF7E4FF01683160E6
:10499000FFF7E0FF0B4B42681C605C60726093E8BD
:1049A000030096E80C008DE8030095E8030000F092
:1049B0005FFB0548046044607CBD00BFA038002058
:1049C000A8380020D8380020D038002010B5194C65
:1049D00094E8030000F078FB174B184A1878E8B108
:1049E000174B93E80300800C40EA8131D8689B683C
:1049F0001160990C41EA80305060124A124B1168E4
:104A00005268880018601148910002684068596037
:104A10000F4B9100820019605A6010BD21686368D5
:104A2000116053600A49084A08601060506048608D
:104A300010BD00BF08390020C0380020A038002079
:104A40002039002014390020A838002040390020E7
:104A5000D838002008B5054890F8A431990703D448
:104A600000F5D27014F032F9014808BD783F0020FB
:104A700030410020000000002DE9F041A04D064625
:104A80002F68FFF759FF03689E4CF81A6D68206085
:104A9000FFF752FF416820686F1A20F0A3FF002241
:104AA000994B04460D4621F075FA58B9204629461F
:104AB0000022964B21F08CFA30B92046294621F08D
:104AC00091FA03E0924801E04FF480508D4A106063
:104AD000384620F087FF00228B4B07460C4621F01A
:104AE00059FA58B9384621460022884B21F070FA0D
:104AF00030B93846214621F075FA03E0844801E0D8
:104B00004FF480507F4B834D58602F68FFF722FF92
:104B10000068814C391A21606D68FFF71BFF4268FD
:104B20002068C2EB050820F05DFF00227B4B0746A2
:104B30000C4621F02FFA60B9384621460022784B06
:104B400021F046FA38B93846214621F04BFA07469B
:104B500003E0744F01E04FF400076F4B40461F60C5
:104B600020F040FF00226D4B04460D4621F012FA62
:104B700058B9204629460022694B21F029FA30B95C
:104B80002046294621F02EFA03E0664801E04FF462
:104B900000006149644B4860F6B15A4E5A68746827
:104BA0001968366815198A19B2F1807FA8BF4FF0CD
:104BB0008072B5F1807FB4BF2C464FF08074B2F1A3
:104BC0007F4FB8BF4FF07F42B4F17F4FB8BF4FF077
:104BD0007F441A605C6001E01E605E60534DDFF848
:104BE00024C1534B2D68D3F800E0DCF8042080107A
:104BF000684302FB0EF44F4E4F493368C61306EB71
:104C0000A410494C09686268BF1016134E434B4A02
:104C100000EBA61650682468584306EB2026DCF803
:104C200000007D4300FB0EFE1268201341435343F6
:104C3000ED1305EBAE1C0CEBA11101EB232020F0D2
:104C4000D1FE2BA3D3E9002307460D4621F0A2F99C
:104C500060B93846294628A3D3E9002321F0B8F9E2
:104C600030B93846294621F0BDF903E0344801E067
:104C70004FF48660334B1860304620F0B3FE1CA31F
:104C8000D3E9002306460C4621F084F960B930468A
:104C9000214619A3D3E9002321F09AF930B930460F
:104CA000214621F09FF903E0254801E04FF486609A
:104CB00024494860FFF7CEFE83681A4643F243203A
:104CC000824203DDA2F5C947FA1FF7E71E4FBA4239
:104CD00003DA02F5C944E21DF8E741F62115AA42BC
:104CE0001A4E35DDC2F54955EA1C3EE0AFF30080AF
:104CF000A038DB3752C190C0A038DB3752C190409A
:104D0000A0380020C83800200000B0C00000B0402B
:104D100000F0FFFFA8380020E8380020000060C144
:104D200000006041000080FFD0380020F8380020EB
:104D3000F0380020BC380020C4380020D8380020CB
:104D4000D0FBFFFFE0380020BDCDFFFF300000208A
:104D50006FF4C954A24206DAC2F17F4202F57F0124
:104D600001F54D42BD32002A02DB36F9122003E084
:104D7000504236F910707A4203F5C9535D1C43F274
:104D80004326B54203DDA5F5C945073DF7E71E4CAF
:104D9000A54203DA05F5C940C51DF8E741F6211122
:104DA0008D421A4F03DDC5F54951CD1C0CE06FF45F
:104DB000C950854206DAC5F17F4505F57F0303F545
:104DC0004D45BD35002D02DB37F9153003E06E424D
:104DD00037F9164063420E4F0E4997E8300005FB45
:104DE00003F602FB14676A4304FB03220E6849685A
:104DF0000948534206EBA73601EBA3320660426036
:104E0000BDE8F04110F0B0BABDCDFFFF300000208A
:104E1000E038002094380020FC380020AFF30080F8
:104E200010B5FFF789FD074C03682360FFF784FD89
:104E300040686060FFF79CFDFFF70CFE0249826846
:104E40008A6010BD0839002094380020074A08B550
:104E50005168074B106819605860FFF789FDFFF72C
:104E6000F9FD044B82681A6008BD00BFB83A002003
:104E700008390020283A0020114A002311481370F5
:104E80000121114A01701148136011495360114A00
:104E900003604360836010480B6013604B60536095
:104EA0001E2193600D4A0160282111600C495A208F
:104EB00008600C4A0C480D49136003600B60704792
:104EC00092380020C0380020083900209438002093
:104ED000D0380020FC380020F0380020C4380020F2
:104EE000F8380020BC380020B0380020F43800200A
:104EF00038B5184D04462B78834229D007281DD099
:104F0000012810D0144A15490020631E1060086063
:104F1000062B1BD8DFE803F007120D15040A120058
:104F200011F012FE12E011F0A1FE0FE010F0D4FE1D
:104F300004E0FFF775FF2878052805D110F08AF9FD
:104F400004E0FFF783FFF6E70128F7D0014A147069
:104F500038BD00BF92380020B0380020F43800205F
:104F60000F4B01461878431E062B17D8DFE803F0D5
:104F700006080E0B0408080011F0D6BD11F02EBE75
:104F8000084610F06FBE074A107810B9064810F0B6
:104F90000FBF054900230B604B608B60704700BF5B
:104FA00092380020EA500020943800201FB5264B8C
:104FB00004461878411E062944D8DFE801F008406D
:104FC000141C04400C00204611F0C6FD3AE02046B7
:104FD00011F060FE36E01D4B1A68B2F5C83F2EDABC
:104FE00040321A602BE00CB9FFF71AFFFFF7EEFC16
:104FF00017498A681EE00CB9FFF728FF15480178A9
:1050000003290DD1144B15481A68016802920191C9
:10501000FFF720FD8068039001A810F0A5F90EE0CD
:105020000F4A104B5068116818605960FFF7CEFCAA
:105030000D4B1A680D4B20469A60FFF71DFD204668
:1050400010F0F6FA1FBD00BF92380020B0380020E3
:1050500094380020943A0020CC3A0020C83A00202E
:10506000B83A002008390020283A0020FC380020F7
:105070001FB504AC04E903008DE80C00039B029A01
:10508000D8178404D11744EA933089049C040B4B4D
:1050900041EA9231920459601A60D860019A9C608A
:1050A000009B074899109310016043600699079B85
:1050B00004488A109910026041601FBD2039002009
:1050C00014390020403900202DE9F34102AB03E9F7
:1050D00003009949994E0F68D1F804E0D6E90045DC
:1050E000E41945EBE775D6E9022312EB0E0243EB18
:1050F000EE73C6E90045C6E90223914EA40C306860
:1051000044EA853438187768950C774408604F6016
:1051100045EA83350099019B4012ED1A641A20F08C
:1051200061FC81A3D3E9002320F0C2FC20F05AFFE8
:105130004FEAA028204620F055FC7DA3D3E90023A8
:1051400020F0B6FC20F04EFF08EBE0103060781243
:1051500020F048FC74A3D3E9002320F0A9FC20F040
:1051600041FF8712284620F03DFC71A3D3E90023BC
:1051700020F09EFC20F036FF07EBE01070606842E4
:1051800021F082F80546604221F07EF8014628466B
:105190001AF052FD4FF08B4121F0CAF821F08EFA3F
:1051A000684B1860034643F24322934203DDA3F5A4
:1051B000C943073BF7E764498B4203DA03F5C94467
:1051C000E31DF8E741F62114A342604D604E03DD74
:1051D000C3F5495303330CE06FF4C952934206DA26
:1051E000C3F17F4303F57F0101F54D43BD33002B30
:1051F00002DB36F9132003E05C4236F91460724298
:1052000000F5C9502A60013043F24325A84203DD6E
:10521000A0F5C945E81FF7E74B49884203DA00F5D6
:10522000C946F01DF8E741F62114A042484E494B0B
:1052300003DDC0F54952D01C0CE06FF4C952904216
:1052400006DAC0F17F4000F57F0505F54D40BD3021
:10525000002802DB36F9106003E0414236F91140C4
:1052600066421E603B4B394D1E684FF4B561002EFF
:10527000B8BF76421E602B6801FB06F0002BB8BF5A
:105280005B4259432B604FF420756E436B43324CA5
:105290008013891320606160294CB2139B132F4E39
:1052A00092029B022568326073604642B54201DC7F
:1052B000266002E08542A8BF206064684D42AC428F
:1052C0001F4801DC456002E08C42A8BF41601A49DA
:1052D00054420868A04205DC194A0C601068002896
:1052E00009DA06E0904206DB0A60154A10680028D9
:1052F00001DD002010604968584281420E4A05DCF9
:105300000F4B50605968002909DA06E0994206DB24
:1053100053600B4B5A68002A01DD00205860BDE83D
:10532000FC8100BFAFF30080353AE2B48FCE9FC05E
:10533000053EA9C2FBE065C01439002020390020D9
:10534000403900203C390020BDCDFFFF103900203E
:105350003000002038390020303900204839002042
:1053600008B5044B1888830701D414F0D9FA024811
:1053700008BD00BF783F0020D83F002008B5044B8F
:10538000B3F81401820701D414F03AFE014808BDB5
:10539000783F00209C40002008B5054890F8A431D3
:1053A000990703D400F5D27013F090FC014808BDB2
:1053B000783F0020304100200B4A00230B48137037
:1053C00082210B4A01604B2111600A4A0A4913608D
:1053D0001E200A4B0A4A08604CF29B4046F2666166
:1053E00018601160704700BF7C39002060390020D0
:1053F0008C390020643900205039002068390020A1
:10540000543900200E4B0F4AB3F906000E4B1060C2
:105410006FF0A20242430D4802F53F214031814224
:1054200004DD02F5172202F5746207E008488142A4
:10543000BABF02F5662202F5A07200221A60704718
:10544000EA5000207839002058390020007102000D
:10545000008FFDFF70B5214B05461878A8423CD05F
:10546000A91E032937D8DFE801F01919021CFFF73C
:1054700077FF1B4C82681B4B226000241C60FFF7E7
:105480006FFF21462246806800F0EEFEFFF768FFBE
:1054900015498068154A086014601AE0144C00260B
:1054A0002660104B00241C60FFF75AFF8668FFF748
:1054B00065FF014689682246304600F0D5FEFFF7B9
:1054C0004FFF094A80681060FFF758FF074B81685B
:1054D000196008480460014A157070BD7C390020CD
:1054E00094390020643900205C3900208039002084
:1054F00090390020883900202DE9F84F0646002811
:1055000000F09E80A84B93F870211C4612F0020F09
:1055100001D114F0DBFEA548A549C768D4F87CA1E9
:10552000A7F57073B3F5F05FD1F8009000F28880B2
:10553000504620F057FA00229E4B04460D4620F0BC
:1055400029FD00287CD12046294600229A4B20F0D4
:105550003FFD002874D1994CCAF51C55206820F0F5
:1055600041FA89A3D3E9002320F0F0F820F03AFDB6
:105570003D35AA03002A4FEA67018046CCBF521886
:10558000C1EB02028E4892FBF7F707608D4BB9F131
:10559000000F04684FEA690B4046B8BFCBF1000B1F
:1055A0001F6820F01FFA0022874B20F0CFF8C7EBCE
:1055B000040A044658460D4620F014FA0022834B94
:1055C00020F076FA0B4602462946204620F0BEF827
:1055D00020F008FD4FEA083999FBF0F908FB09F2C1
:1055E000A8EB2234204620F0FDF969A3D3E900237B
:1055F00020F0EEFC714908B90C6002E046F26660EA
:1056000008600AFB09F307EB233A504620F0EAF959
:1056100061A3D3E9002304460D4620F0D9FC694F6D
:1056200008B16B4A0BE0C7F800A0204629465CA3EE
:10563000D3E9002320F0AEFC10B144F2F8223A6026
:1056400064490878431E042B00F2F085DFE813F06C
:1056500005000C007C012F028703FFF781FE8268A2
:105660005D485E4902606BE15D4C5E4F2068DFF88B
:105670004081386000F088FE5B485C4F03684568F5
:10568000990C5B4B41EA853438681968594A5A4F7E
:10569000146085008A003A60C8F80050FFF760FE89
:1056A0008068271A384620F09DF90022534B0446A3
:1056B0000D4620F08DFC50B9514B20462946002262
:1056C00020F068FC4F4B002818BF1F4601E04FF444
:1056D0002067D8F80040FFF751FE8168C1EB04084D
:1056E000404620F07FF90022474B04460D4620F04B
:1056F0006FFC50B9204629460022444B20F04AFC5A
:10570000434C002808BF444601E04FF4A004414840
:1057100066B102684049BB188B4201DD016006E0BA
:105720003E4DAB42ACBF0360056000E0066032480E
:105730003B4B02682348110202685D1A911195FBE8
:10574000F1F3384D2B60FFF727FE026802F5C951CF
:105750004B1C43F24325AB4203DDA3F5C941CB1FEC
:10576000F7E7314A934203DA03F5C9430733F8E711
:1057700041F621118B422D4D5ADDC3F54951CB1C09
:1057800063E000BFAFF300802D431CEBE2362A40FC
:105790009A9999999999D9401F85EB51B89EA3413F
:1057A000E78C28ED0DBED040783F0020EC3A002079
:1057B000803900200000B0C00000B0405439002003
:1057C0006C39002068390020000069410000594010
:1057D000285CCF097C3900209439002078390020DA
:1057E0005839002090390020A0390020A839002025
:1057F000AC3900205C390020883900200000A4402A
:105800000000A4C000F6FFFF00005441000054C196
:105810000000B0FF6439002080841E00807BE1FF1F
:10582000703D270074390020BDCDFFFF30000020FF
:105830006FF4C952934206DAC3F17F4303F57F0147
:1058400001F54D43BD33002B02DB35F9132003E096
:105850005A4235F912506A42406800F5C953013383
:1058600043F24325AB4203DDA3F5C940C31FF7E76D
:10587000AB498B4203DA03F5C945EB1DF8E741F666
:1058800021108342A74D03DDC3F5495303330CE0D8
:105890006FF4C9518B4206DAC3F17F4303F57F00F1
:1058A00000F54D43BD33002B02DB35F9130003E057
:1058B000594235F91150684250438513284620F06B
:1058C00091F895A3D3E9002320F064FB964B42F2B4
:1058D0008212196800280CBF284610468A0392FBE2
:1058E000F0F0B0F5075F02DD4FF4075002E000284A
:1058F000B8BF002018608D4B8D48196803684A4274
:1059000059424C435743241404EBE714894F8A4B04
:105910003A6819685042484304EB20478248874A56
:1059200003681760FF18B7F5165F854902DD4FF46D
:10593000165204E0002F01DB0F6001E000220A6034
:105940000968804B00F071BC7F4A804C106800F001
:105950001BFD27686068BB0C7D4A7E4F43EA80359B
:1059600014683B687C497D4ADFF820820D60A00006
:1059700099001160C8F80000FFF7F2FC84682F1B43
:10598000384620F02FF80022754B04460D4620F0D3
:105990001FFB50B9734B20462946002220F0FAFA2B
:1059A000714B002818BF1F4601E04FF42067D8F85C
:1059B0000040FFF7E3FC8068C0EB0408404620F09D
:1059C00011F80022694B04460D4620F001FB50B946
:1059D000204629460022664B20F0DCFA654C002860
:1059E00008BF444601E04FF4A004534B66B1196868
:1059F00061487A18824201DD186006E05F4DAA42D4
:105A0000ACBF1A601D6000E01E60544B5C48196812
:105A10005C4B0A021968851A8A1195FBF2F0424D17
:105A20002860FFF7B9FC036803F5C9514B1C43F22A
:105A30004322934203DDA3F5C942D31FF7E7384D54
:105A4000AB4203DA03F5C941CB1DF8E741F621115A
:105A50008B42344A03DDC3F54951CB1C0CE06FF493
:105A6000C955AB4206DAC3F17F4303F57F0101F567
:105A70004D43BD33002B02DB32F9132003E05D42BE
:105A800032F915205242406800F5C953013343F200
:105A90004325AB4203DDA3F5C943073BF7E72049A4
:105AA0008B4280F2F68003F5C945EB1DF7E7364CD3
:105AB000264F206800F0F0FB3D687868AB0C244A64
:105AC000244D43EA803417682B682349234ADFF8C2
:105AD000BC800C60B80099001160C8F80000FFF7A6
:105AE0003FFC8768E71B38461FF07CFF00221C4BF9
:105AF00004460D4620F06CFA002849D1194B204687
:105B00002946002220F046FA174B002818BF1F46EE
:105B100040E000BFAFF3008065732D3852C1C04034
:105B2000BDCDFFFF30000020743900206039002017
:105B30008C39002050390020643900209839002029
:105B400084390020EC3A002090390020A039002050
:105B5000A8390020AC3900205C39002088390020A9
:105B60000000A4400000A4C000F6FFFF0000544164
:105B7000000054C10000B0FF80841E00807BE1FF64
:105B8000703D2700683900209439002080390020BA
:105B90004FF42067D8F80040FFF7F0FB8068C0EBB7
:105BA000040840461FF01EFF0022A34B04460D468A
:105BB00020F00EFA50B92046294600229F4B20F0D3
:105BC000E9F99F4C002808BF444601E04FF4A004C7
:105BD0009C4B66B119689C487A18824201DD1860B6
:105BE00006E09A4DAA42ACBF1A601D6000E01E603C
:105BF000974B98481968984B0A021968851A8A11B8
:105C000095FBF2F0954D2860FFF7C6FB036803F59E
:105C1000C9514B1C43F24322934203DDA3F5C94112
:105C2000CB1FF7E78E4DAB4203DA03F5C945EB1DF9
:105C3000F8E741F621118B428A4A03DDC3F5495149
:105C4000CB1C0CE06FF4C955AB4206DAC3F17F43BD
:105C500003F57F0101F54D43BD33002B02DB32F923
:105C6000132003E05D4232F915205242406800F5EE
:105C7000C953013343F24325AB4203DDA3F5C943C6
:105C8000073BF7E776498B4203DA03F5C940C31DAA
:105C9000F8E741F621108342724D03DDC3F5495305
:105CA00003330CE06FF4C9518B4206DAC3F17F4332
:105CB00003F57F0000F54D43BD33002B02DB35F9C2
:105CC000130003E0594235F91150684250438513DF
:105CD00028461FF087FE56A3D3E9002320F05AF987
:105CE0005E4B42F28212196800280CBF284610460B
:105CF0008A0392FBF0F0B0F5075F02DD4FF4075026
:105D000002E00028B8BF00201860574B57481968B8
:105D100003684A4259424C435743241404EBE714A6
:105D2000534F484B3A6819685042484304EB2047A8
:105D30004A48504A03681760FF18B7F5165F4E4887
:105D400002DD4FF4165104E0002F01DB076001E093
:105D500000210160494A4A4B116802685EE2494AE3
:105D60001178022940F0F780474A484F1468DFF85D
:105D70003C816042386000F08FFA4548454F016829
:105D800043688D0C444945EA833438680D68434ABA
:105D90002F4F83001460AA003A60C8F80030FFF764
:105DA000DFFA8068271A38461FF01CFE00223C4BA1
:105DB00004460D4620F00CF950B93A4B20462946CE
:105DC000002220F0E7F8384B002818BF1F4601E0FA
:105DD0004FF42067D8F80040FFF7D0FA8168C1EB94
:105DE000040840461FF0FEFD0022134B04460D46FA
:105DF00020F0EEF850B92046294600220F4B20F043
:105E0000C9F80F4C002808BF444601E04FF4A00435
:105E10000C48002E4CD002680B49BB188B4201DDA8
:105E2000016046E0094DAB42ACBF0360056040E055
:105E300065732D3852C1C04000005441000054C168
:105E40000000B0FF6439002080841E00807BE1FFE9
:105E500088390020703D27006839002074390020FF
:105E6000BDCDFFFF30000020603900208C390020BC
:105E700050390020983900208439002078390020DA
:105E8000EC3A0020C53A0020B03A002094390020B6
:105E9000A0390020A8390020AC3900205C3900204E
:105EA0000000A4400000A4C000F6FFFF80390020DD
:105EB0000660A548A54B0268A548110202685D1A54
:105EC000911195FBF1F3A34D2B60FFF765FA026882
:105ED00002F5C9514B1C43F24325AB4203DDA3F548
:105EE000C942D31FF7E79C4A934203DA03F5C9413D
:105EF000CB1DF8E741F621118B42984D03DDC3F528
:105F00004951CB1C0CE06FF4C952934206DAC3F13D
:105F10007F4303F57F0101F54D43BD33002B02DBC9
:105F200035F9132003E05A4235F912506A424068AD
:105F300000F5C953013343F24325AB4203DDA3F51A
:105F4000C943073BF7E784498B4280F2C18003F5E0
:105F5000C945EB1DF7E7012940F04E81804F814C88
:105F60003D68814F6842206000F00EFA7F493C682E
:105F700008687F4B42421A607D68A10C7D4A7E4CC6
:105F8000136841EA85377D4821686F4ADFF814823B
:105F90009D00076088001060C8F80050FFF7E0F926
:105FA0008368FF1A38461FF01DFD0022744B04461B
:105FB0000D4620F00DF850B9294620460022714BBD
:105FC0001FF0E8FF7049002818BF0F4601E04FF4AA
:105FD0002067D8F80040FFF7D1F98068C0EB0408CB
:105FE00040461FF0FFFC0022684B04460D461FF0A0
:105FF000EFFF50B9204629460022654B1FF0CAFF2B
:10600000644C002808BF444601E04FF4A004624BF2
:1060100066B11A686149B818884201DD196006E066
:106020005F4DA842ACBF18601D6000E01E60464B8B
:1060300046491A68464B10021A680D1A901195FBD2
:10604000F0F1444D2960FFF7A7F9036803F5C95241
:10605000531C43F243218B4203DDA3F5C945EB1FDB
:10606000F7E73D4DAB4203DA03F5C941CB1DF8E735
:1060700041F621129342394D03DDC3F54952D31C39
:106080000CE06FF4C9518B4206DAC3F17F4303F58C
:106090007F0202F54D43BD33002B02DB35F913209F
:1060A00003E0594235F911506A42406800F5C9537E
:1060B000013343F243218B4203DDA3F5C943073B80
:1060C000F7E7254DAB4203DA03F5C940C31DF8E7F6
:1060D00041F621108342214D03DDC3F549530333BB
:1060E0000CE06FF4C9518B4206DAC3F17F4303F52C
:1060F0007F0000F54D43BD33002B02DB35F9130063
:1061000003E0594235F9115068425043851328463F
:106110001FF068FC0AA3D3E900231FF03BFF0D4BDF
:1061200042F28212196800280CBF284610468A03E2
:1061300092FBF0F0B0F5075F36DD4FF4075036E024
:1061400065732D3852C1C04088390020703D27004A
:106150006839002074390020BDCDFFFF30000020D9
:10616000AC3A002090390020A0390020943900205A
:10617000B03A0020A8390020AC3900205C3900205A
:106180000000A4400000A4C000F6FFFF000054413E
:10619000000054C10000B0FF6439002080841E005C
:1061A000807BE1FF803900200028B8BF0020186004
:1061B0001F4B2048196803684A4259424C435743D1
:1061C000241404EBE7141C4F1C4B3A681968504226
:1061D000484304EB20471A481A4A03681760FF181F
:1061E000B7F5165F184B02DD4FF416520DE0002F85
:1061F0001F600BDA002208E041B914481449036813
:1062000014485A420A60104B02681A601249134B34
:1062100008780D4A40B91248126801689142D4BF0B
:10622000D960DA60BDE8F88F1168D960BDE8F88FF1
:10623000603900208C39002050390020643900205A
:10624000743900209839002084390020B03A0020A9
:1062500094390020E83A0020EA500020EC3A00206F
:1062600078390020AFF3008010B5C417064BA404A2
:1062700044EA9034800418605C600448044B891040
:1062800092101960026010BDA0390020AC390020C6
:10629000A83900200000000033492DE9F0410C68C6
:1062A000324D334ED5E90023121943EBE4734FEA24
:1062B00092483768C5E9002348EA8332801AE71913
:1062C00040F285132B4C03FB00F50F6079126143FC
:1062D0004FEAE51404EBA12840461FF083FB1EA300
:1062E000D3E9002304460D461FF072FE10B140F2C0
:1062F000D9710BE02046294619A3D3E900231FF0EA
:1063000049FE10B9C6F8008001E01B4931603846EB
:106310001FF068FB0022194B04460D461FF044FE97
:1063200038B1134B164A19680F480029026011DA78
:106330000EE0204629460022124B1FF03FFE48B1D6
:106340000B4B094819684FF4C0220029026001DD97
:1063500000221A60BDE8F0813208AC1C5A649F40EC
:106360001F85EB51B89EB3C0A8390020A03900208A
:10637000AC39002022F4FFFF62ECFFFF000018C1DF
:106380000000FAFF0000184131492DE9F041314E7B
:106390000C68314D3768D5E90023121943EBE473DB
:1063A000E719C5E90023A7EBA0002C4B4FEA6028B2
:1063B00003FB08F24FEA22480F6040461FF012FB31
:1063C0001FA3D3E9002304460D461FF001FE10B1C0
:1063D00040F2D9710BE0204629461BA3D3E90023E4
:1063E0001FF0D8FD10B9C6F8008001E01C493160EB
:1063F00038461FF0F7FA00221A4B04460D461FF0EC
:10640000D3FD38B1134918480A68114B002A1860A7
:1064100011DA0EE0204629460022144B1FF0CEFD73
:1064200048B10C490A4B0A684FF4C020002A186092
:1064300001DD00200860BDE8F08100BFAFF30080FF
:106440003208AC1C5A649F401F85EB51B89EB3C004
:10645000A8390020AC390020A03900200000FCFF42
:1064600062ECFFFF000018C10000FAFF00001841B5
:106470007047000008B5044B1888430701D413F097
:106480008BFB024808BD00BF783F0020E43F00209E
:1064900008B5044BB3F81401420701D413F05AFEB7
:1064A000014808BD783F0020A840002016F02CBF0E
:1064B000144B42F6BD40996F5A6D8A1A42434FF40D
:1064C000246192FBF1F2D86F996D9A61421A4DF6F0
:1064D0009E00424343F23F2192FBF1F2D3F8800049
:1064E000D96DDA61421A4AF24750424342F297317B
:1064F00092FBF1F21A62044B1878012801D114F0D2
:1065000043BF7047B04E002028420020144B10B506
:10651000DA6818695969DC6E1A639A6C5863996372
:10652000A01A41F2293148434FF47A7290FBF2F4F9
:10653000DC60D86C1C6F241A4C4394FBF2F0186199
:106540005C6F186D201A414391FBF2F15961054BC4
:106550001A781AB1BDE8104014F0EEBD10BD00BFAE
:10656000B04E0020284200201A4B10B51A68586817
:1065700099681C6E5A62DA6B9862D962A01A41F26D
:10658000071148434FF47A7290FBF2F41C60186CC8
:106590005C6E241A4C4394FBF2F058609C6E586C6D
:1065A000201A414391FBF2F199600B4B1A7852B9D2
:1065B00013F0FAFF094890F82C10022909D1BDE820
:1065C000104014F0F9B814F09FFCBDE8104016F02C
:1065D000E3BD10BDB04E00202842002048420020FC
:1065E00008B5054890F8A431990703D400F5D27096
:1065F00012F06CFB014808BD783F002030410020BC
:1066000008B5054890F8A431DB0703D400F5D27033
:1066100011F09CFA014808BD783F0020204100207D
:1066200080B590B012F0E8FE14F04CFF13F062F960
:1066300013F0DEFE13F0E8FEA34B00243C210225FC
:10664000DC801C815C819C81DC811C825C829C8260
:106650001D7059709C70DC701C7117F08DF9FDF77E
:1066600069F816F053FA13F07FFF14F069F816F08A
:106670004FFD14F059FFFDF79FFA15F093FA934878
:10668000934E057017F080F921464FF06C5012F0D0
:106690005BFF214630704FF06C5012F055FF8D4F6C
:1066A000214638708C4812F04FFF8C4B21461870F1
:1066B0008B4812F049FF8B4A214610708A4812F02D
:1066C00043FF8A4D21462870894812F03DFF8949D1
:1066D00008702146804812F037FF874C20707C48B4
:1066E000864B0678142707FB06352A7D1035002ACD
:1066F00000F0AA8000242C7116F028FBFDF758F951
:106700007F49804A0878214613F094FE7E48066847
:10671000A642CCBF032727467E43A642D4BF01230F
:10672000202396FBF3F505F57A74B4F57A7F06DB42
:1067300040F26C729442A8BF1446A1B201E04FF43B
:106740007A71714B71485D68C180002DCCBF032404
:10675000002465430EB2002DD4BF0121202195FBFA
:10676000F1F26B4F02F57A70B0F57A7F3E6006DB8E
:1067700040F26C77B842A8BF384686B201E04FF4C9
:106780007A766149614B88681E800028CCBF03225D
:106790000022504335B20028D4BF0126202690FBAA
:1067A000F6F75B4C07F57A73B3F57A7F656006DB25
:1067B00040F26C74A342A8BF23469DB201E04FF49F
:1067C0007A75514E5149F7688D80002FCCBF032355
:1067D00000235F4328B2002FD4BF0125202597FB5B
:1067E000F5F44B4A04F57A71B1F57A7F906006DBD7
:1067F00040F26C729142A8BF114688B201E04FF49A
:106800007A70434B414E434D07B27080DF60FCF716
:1068100065FE2C7884B1404D2988481C81B2B1F5C1
:10682000007F08D33D4E00222A803D4D37882C88BA
:106830007B1C3380611C29803A480288561CB7B201
:10684000092F88BF00270780224B2C491D7814246C
:1068500004FB0510027D10300AB3334F00263B784D
:1068600006715D1CECB20E2C88BF3E70174E98BFAF
:106870003C703178022903D115F094F90120307071
:106880003278032A02D1114B00271F70264D2C7835
:106890002CB90E4E3178012901D115F099F90F4824
:1068A000164B0278142707FB02352C7D1035002C7F
:1068B0005ED01E49002608782E71421CD7B23B2FAD
:1068C000014D35D80F7037E0EA500020E039002044
:1068D000E2390020243A00208988883C1D3A0020B3
:1068E000CDCC4C3DEA390020CDCCCC3D173A002030
:1068F0000AD7A33CBB390020083A00206C3C00209A
:10690000FB3700200C4B0020F0410020E641002026
:106910007837002002380020BE39002000380020DF
:1069200090380020C0390020FF390020D8390020DD
:106930002B790E70EB702E716E780A4C3B2E02D9BB
:106940000227277007E01D2E03D901210F20217097
:10695000A070721C627025780348202135B917F0A9
:10696000B3FA05E0EA5000200010014017F0AAFA3F
:10697000B04BB1491C78142606FB0417387D10373C
:10698000F8B1AE4A002015783871AD4C35B1237896
:10699000012B03D00C2B01D0FDF7A4F826780C2E88
:1069A0000FD1A8490F7867B1A348A74C0568D4F860
:1069B000EC20AB1A052B04D9002084F85B00FDF70E
:1069C00091F8A24E9C483778142101FB07052A7DD7
:1069D000044610351AB100232B7114F081FD9C4E32
:1069E0001420377800FB07410D7D10311DB10022C6
:1069F0000A71FCF7E9FE974C8F4F2378142606FBAB
:106A00000370017D103000290DF06A84924A002540
:106A100014780571002C42F0A983904B90491E78A0
:106A20000D78771CF8B20E2894BF18701C706A1C81
:106A30008C4BD4B21E783B2C88BF00240C70771C82
:106A40008949F8B20D78412888BF002018706A1C67
:106A5000864BD4B21E78472C88BF00240C70771C5C
:106A60008349F8B20D784D2888BF002018706A1C41
:106A7000804BD4B21E785F2C88BF00240C70771C2A
:106A80007D49F8B20D787D2888BF002018706A1CF7
:106A90007A4BD4B2B92C1E7888BF00240C70771CB6
:106AA0007749F8B2F4280D8888BF002018706A1C56
:106AB0006A4B94B2B4F5997F1E7828BF00240C80ED
:106AC000002E40F039836F4A6F48176840217D429D
:106AD000049512F09BFD002801F0C2806B4B6C4FB7
:106AE0001E883A884036551C992167481E803D8093
:106AF000684DFCF7A8FB40216348674FFCF7A3FBF8
:106B0000812141242970604801213C70FCF79BFBE6
:106B100038782E786D38C3B29A1993215A483B7051
:106B20002A70FCF790FBFFF7A5FC3C7801782E78E3
:106B30000819C3B29A1954483B702A70FCF783FBBA
:106B4000FFF798FC3C7841782E780819C3B29A195F
:106B50004D483B702A70FCF776FBFFF78BFC3C78C6
:106B600081782E780819C3B29A1947483B702A7069
:106B7000FCF769FBFFF77EFC3C78C1782E7808199A
:106B8000C3B29A1940483B702A70FCF75CFBFFF7D0
:106B900071FC3C7801792E780819C3B29A193A48E9
:106BA0003B702A70FCF74FFBFFF764FC3C7841799F
:106BB0002E780819C3B29A1933483B702A70FCF733
:106BC00042FBFFF757FC3C7881792E780819C3B255
:106BD0009A192D483B702A70FCF735FBFFF74AFCE9
:106BE0003C78C1792E780819C3B29A1926483B70AF
:106BF0002A70FCF728FBFFF73DFC3C78017A2E78E1
:106C00000819C3B29A1920483B702A70FCF71BFB85
:106C1000FFF730FC3C78417A2E780819C3B29A19F4
:106C200019483B702A70FCF70EFBFFF723FC3C78F9
:106C3000817A33E0EA3900206C3C0020EA500020E1
:106C400006380020FB370020844C0020173A002033
:106C5000BB390020083A0020043C0020EC39002019
:106C6000183A0020CE3900200D3A00200C3A0020BE
:106C7000D6390020DB3900201F3A0020D43900200B
:106C8000C839002094390020283D0020184B0020EE
:106C9000144B0020234C0020224C00202E78081991
:106CA000C3B29A19B6483B702A70FCF7CCFAFFF7CA
:106CB000E1FB3C78C17A2E780819C3B29A19B04822
:106CC0003B702A70FCF7BFFAFFF7E2FB3C780178D3
:106CD0002E780819C3B29A19A9483B702A70FCF79C
:106CE000B2FAFFF7D5FB3C7841782E780819C3B289
:106CF0009A19A3483B702A70FCF7A5FAFFF7C8FB66
:106D00003C7881782E780819C3B29A199C483B7058
:106D10002A70FCF798FAFFF7BBFB3C78C1782E7815
:106D20000819C3B29A1996483B702A70FCF78BFA7F
:106D3000FFF7AEFB3C7801792E780819C3B29A1997
:106D40008F483B702A70FCF77EFAFFF7A1FB3C7876
:106D500041792E780819C3B29A1989483B702A7074
:106D6000FCF771FAFFF794FB3C7881792E780819CB
:106D7000C3B29A1982483B702A70FCF764FAFFF795
:106D800087FB3C78C1792E780819C3B29A197C48E0
:106D90003B702A70FCF757FAFFF77AFB3C78017AD0
:106DA0002E780819C3B29A1975483B702A70FCF7FF
:106DB0004AFAFFF76DFB3C78417A2E780819C3B286
:106DC0009A196F483B702A70FCF73DFAFFF760FB99
:106DD0003C78817A2E780819C3B29A1968483B70BA
:106DE0002A70FCF730FAFFF753FB3C78C17A2E7813
:106DF0000819C3B29A1962483B702A70FCF723FA4B
:106E0000FFF7EEFB3C7801782E780819C3B29A1987
:106E10005B483B702A70FCF716FAFFF7E1FB3C7801
:106E200041782E780819C3B29A1955483B702A70D8
:106E3000FCF709FAFFF7D4FB3C7881782E78081923
:106E4000C3B29A194E483B702A70FCF7FCF9FFF761
:106E5000C7FB3C78C1782E780819C3B29A19484804
:106E60003B702A70FCF7EFF9FFF7BAFB3C78017929
:106E70002E780819C3B29A1941483B702A70FCF762
:106E8000E2F9FFF7ADFB3C7841792E780819C3B2DF
:106E90009A193B483B702A70FCF7D5F9FFF7A0FB25
:106EA0003C7881792E780819C3B29A1934483B701E
:106EB0002A70FCF7C8F9FFF793FB3C78C1792E786C
:106EC0000819C3B29A192E483B702A70FCF7BBF917
:106ED000FFF786FB3C78017A2E780819C3B29A191D
:106EE00027483B702A70FCF7AEF9FFF779FB3C7836
:106EF000417A2E780819C3B29A1921483B702A703A
:106F0000FCF7A1F9FFF76CFB3C78817A2E78081921
:106F1000C3B29A191A483B702A70FCF794F9FFF72C
:106F20005FFB3C78C17A2E780819C3B2154C9A19C8
:106F300013483B702A70FCF786F9217938782A7853
:106F40000B18DEB2B01828700D483E70FCF77BF9C4
:106F500061793B782A78CE18F0B2831838700848E7
:106F60002B70FCF770F9A1793E782A788819C3B2A2
:106F70009E1803483B702E70FCF765F9E17903E039
:106F8000283D00200839002038782A780B18DEB216
:106F9000B018287064483E70FCF755F921783B78AA
:106FA0002A78CE18F0B2831838705F482B70FCF73F
:106FB0004AF961783E782A788819C3B29E185A48EF
:106FC0003B702E70FCF73FF9A17838782A780B18BF
:106FD000DEB2B018287054483E70FCF734F9E178FE
:106FE0003C782A780B19DEB2B01828704E483E70F3
:106FF000FCF729F93C789DF810102A780B19DEB2BD
:10700000B018287048483E70FCF71DF93C789DF890
:1070100011102A780B19DEB2B018287042483E7061
:10702000FCF711F93C789DF812102A780B19DEB2A2
:10703000B01828703C483E70FCF705F93C789DF884
:1070400013102A780B19DEB2B018384C2870364865
:107050003E70FCF7F8F8217A3B782A78CE18F0B227
:107060008318387030482B70FCF7EDF8617A3E7861
:107070002A788819C3B29E182B483B702E70FCF7F3
:10708000E2F8A17A38782A780B18DEB2B0182870A6
:1070900025483E70FCF7D7F8E17A3C782A780B193E
:1070A000DEB2B018224C28701F483E70FCF7CBF8B7
:1070B000217B3B782A78CE18F0B2831838701A48B2
:1070C0002B70FCF7C0F8617B3E782A788819C3B230
:1070D0009E1815483B702E70FCF7B5F8A17B3878E8
:1070E0002A780B18DEB2B01828700F483E70FCF7F3
:1070F000AAF8E17B3C782A780B19DEB2B0180D4C67
:10710000287009483E70FCF79EF83B7821782A7871
:10711000CE18F0B28318387003482B70FCF793F840
:10712000617800F08ABD00BF283D0020FC380020B7
:10713000EC3A002000380020062E40F0B983B14818
:107140003E2112F063FA002800F0C882AE4EAF4C28
:1071500032882388501C3E3330809921A9482380EF
:10716000AB4CFCF770F83E21A648AA4FFCF76BF831
:107170007D213F252170A34801213D70FCF763F874
:107180003B782278653BDEB2A34DB01820709B217E
:107190009C483E70FCF757F83B7829782278CE1847
:1071A000F0B28318387097482370FCF74CF83E789B
:1071B000697822788819C3B29E1892483B7026706D
:1071C000FCF741F83878A97822780B18DEB2B018AD
:1071D00020708C483E70FCF736F83B78E9782278CE
:1071E000CE18F0B28318387086482370FCF72BF85D
:1071F0003E78297922788819C3B29E1881483B705D
:107200002670FCF720F83878697922780B18DEB2FE
:10721000B01820707B483E70FCF715F83B78A979D0
:107220002278CE18F0B28318387076482370FCF7B5
:107230000AF83E78E97922788819C3B29E18714815
:107240003B702670FBF7FFFF3878297A22780B18FD
:10725000DEB2B01820706B483E70FBF7F4FF3B784D
:10726000697A2278CE18F0B2831838706548237096
:10727000FBF7E9FF3E78A97A22788819C3B29E18F5
:1072800060483B702670FBF7DEFF3878E97A227899
:107290000B18DEB2B01820705A483E70FBF7D3FFCF
:1072A0003B78297C2278CE18F0B283183870554884
:1072B0002370FBF7C8FF3E78697C22788819C3B237
:1072C0009E1850483B702670FBF7BDFF3878A97CAC
:1072D00022780B18DEB2B01820704A483E70FBF7D7
:1072E000B2FF3B78E97C2278CE18F0B28318387070
:1072F00044482370FBF7A7FF3E78297B2278881942
:10730000C3B29E183F483B702670FBF79CFF38784D
:10731000697B22780B18DEB2B018207039483E70B5
:10732000FBF791FF3B78A97B2278CE18F0B2831847
:10733000387034482370FBF786FF3E78E97B22786B
:107340008819C3B29E182F483B702670FBF77BFF4D
:107350003878297D22780B18DEB2B01820702948C1
:107360003E70FBF770FF3B78697D2278CE18F0B253
:107370008318387023482370FBF765FF3E78A97D9A
:1073800022788819C3B29E181E483B702670FBF7FE
:107390005AFF3878E97D22780B18DEB2B0182070D9
:1073A00018483E70FBF74FFF3B7895F8281022787D
:1073B000CE18F0B28318387012482370FBF743FFE1
:1073C0003E7895F8291022788819C3B29E180D4886
:1073D0003B702670FBF737FF387895F82A10227833
:1073E0000B18DEB2B018207006483E70FBF72BFF7A
:1073F0003B7895F82B102278CE18F0B283183870AD
:107400000CE000BF283D0020144B0020184B00204A
:10741000234C0020224C0020844C0020AE482370D6
:10742000FBF711FF3E7895F82C1022788819C3B22B
:107430009E18A9483B702670FBF705FF387895F831
:107440002D1022780B18DEB2B0182070A2483E70C2
:10745000FBF7F9FE3B7895F82E102278CE18F0B2A3
:10746000831838709C482370FBF7EDFE3E7895F842
:107470002F1022788819C3B29E1897483B70267047
:10748000FBF7E1FE387895F8301022780B18DEB261
:10749000B018207090483E70FBF7D5FE3B7895F809
:1074A00031102278CE18F0B2831838708A482370D1
:1074B000FBF7C9FE3E7895F8321022788819C3B2DE
:1074C0009E1885483B702670FBF7BDFE387895F80E
:1074D000331022780B18DEB2B01820707E483E7050
:1074E000FBF7B1FE3B7895F834102278CE18F0B255
:1074F0008318387078482370FBF7A5FE3E7895F81E
:10750000351022788819C3B29E1873483B702670D4
:10751000FBF799FE387895F8361022780B18DEB212
:10752000B01820706C483E70FBF78DFE3B7895F8E4
:1075300037102278CE18F0B283183870664823705E
:10754000FBF781FE3E7895F84C1022788819C3B27B
:107550009E1861483B702670FBF775FE387895F8E9
:107560004D1022780B18DEB2B01820705A483E70C9
:10757000FBF769FE3B7895F84E102278CE18F0B2F2
:107580008318387054482370FBF75DFE3E7895F8F9
:107590004F1022788819C3B29E184F483B7026704E
:1075A000FBF751FE387895F8501022780B18DEB2B0
:1075B000B018207048483E70FBF745FE3B7895F8C0
:1075C00051102278CE18F0B28318387042482370D8
:1075D000FBF739FE3E7895F8521022788819C3B22D
:1075E0009E183D483B702670FBF72DFE387895F8C5
:1075F000531022780B18DEB2B018207036483E7057
:10760000FBF721FE3B7895F860102278CE18F0B297
:107610008318387030482370FBF715FE3E7895F8D4
:10762000611022788819C3B29E182B483B702670CF
:10763000FBF709FE387895F8621022780B18DEB255
:10764000B018207024483E70FBF7FDFD3B7895F89C
:1076500063102278CE18F0B2831838701E48237059
:10766000FBF7F1FD3E7895F8581022788819C3B2DF
:107670009E1819483B702670FBF7E5FD387895F8A1
:10768000591022780B18DEB2B018207012483E70E4
:10769000FBF7D9FD3B7895F85A102278CE18F0B256
:1076A000831838700C482370FBF7CDFD95F85B10FC
:1076B0003D7822784E19F0B283183870064823704E
:1076C000FBF7C1FD39780448FBF7BDFD024821787E
:1076D000FBF7B9FD06E000BF283D00206B4F3D7869
:1076E000691C39706A4C6B4994F864700D78BD421E
:1076F00001D100260E700878664EB84280F0C38033
:1077000004EBC00292F86940614F002C00F0BB808E
:10771000614B195CA14200F0B68060480E2111F067
:1077200075FF002800F0A2805D4B5E4C198822880E
:107730004D1C0E32992159481D8022805A4DFBF76D
:1077400082FD0E215548594CFBF77DFD0F201D226F
:107750002870012151482270FBF775FD2B782078A5
:107760001933D9B20A1829704C4819212270FBF735
:107770006AFD2B7831782278C818C3B29818207027
:1077800046482B70FBF75FFD31782A7807EBC10381
:1077900093F8661088182278C3B2981820703F4872
:1077A0002B70FBF750FD31782A7807EBC10393F873
:1077B000671088182278C3B29818207037482B7049
:1077C000FBF741FD31782A7807EBC10393F8681085
:1077D00088182278C3B29818207030482B70FBF7B5
:1077E00032FD31782A7807EBC10393F869108818C5
:1077F0002278C3B29818207028482B70FBF723FD1D
:1078000031782A7807EBC10393F86A100C3788188F
:107810002278C3B29818207020482B70FBF713FD14
:1078200031782B780C3117F83110CA182378D0B280
:10783000C218287019482270FBF705FD36782878A1
:1078400007EBC60797F8611022780B18DEB2B7185D
:1078500012482E702770FBF7F6FC29780F48FBF7CB
:10786000F2FC0E482178FBF7EEFC03E0074D2E7882
:10787000701C2870074D06492C78074E01EBC40098
:1078800090F869303355034CEBE100BF164B0020F4
:10789000844C0020FD390020ED390020283D0020D7
:1078A000144B0020184B0020224C0020234C0020B9
:1078B0000C2E40F0D981AF482A2111F0A7FE0028F4
:1078C00000F0CE81AC4FAD4938880D882A306A1C53
:1078D0000A8038809921A748A94FAA4DFBF7B3FC2D
:1078E0002A21A448FBF7AFFC2B2455230121A148F2
:1078F0002B703C70FBF7A7FC3E7829783A3EA24CEF
:10790000F0B242183870C6219A482A70FBF79BFCE7
:1079100021783B782A78CE18F0B2831838709548D1
:107920002B70FBF790FC61783E782A788819C3B2F7
:107930009E1890483B702E70FBF785FCA178387834
:107940002A780B18DEB2B01828708A483E70FBF710
:107950007AFCE1783B782A78CE18F0B28318387038
:1079600084482B70FBF76FFC21793E782A788819C0
:10797000C3B29E187F483B702E70FBF764FC6179A0
:1079800038782A780B18DEB2B018287079483E7023
:10799000FBF759FCA1793B782A78CE18F0B283180E
:1079A000387074482B70FBF74EFCE1793E782A78EA
:1079B0008819C3B29E186F483B702E70FBF743FCCA
:1079C000217A38782A780B18DEB2B0182870694806
:1079D0003E70FBF738FC617A3B782A78CE18F0B21B
:1079E0008318387063482B70FBF72DFCA17A3E7822
:1079F0002A788819C3B29E185E483B702E70FBF738
:107A000022FCE17A3C782A780819C3B25F4C9E18B0
:107A100058483B702E70FBF716FC217838782A788E
:107A20000B18DEB2B018287052483E70FBF70BFC02
:107A300061783B782A78CE18F0B2831838704D48B8
:107A40002B70FBF700FCA1783E782A788819C3B226
:107A50009E1848483B702E70FBF7F5FBE1783878AC
:107A60002A780B18DEB2B018287042483E70FBF737
:107A7000EAFB21793B782A78CE18F0B28318387067
:107A80003C482B70FBF7DFFB61793E782A78881938
:107A9000C3B29E1837483B702E70FBF7D4FBA17918
:107AA00038782A780B18DEB2B018287031483E704A
:107AB000FBF7C9FBE1793B782A78CE18F0B283183E
:107AC00038702C482B70FBF7BEFB217A3E782A7861
:107AD0008819C3B29E1827483B702E70FBF7B3FB82
